{
  "contractName": "DistributorRole",
  "abi": [
    {
      "inputs": [],
      "payable": false,
      "stateMutability": "nonpayable",
      "type": "constructor"
    },
    {
      "anonymous": false,
      "inputs": [
        {
          "indexed": true,
          "name": "account",
          "type": "address"
        }
      ],
      "name": "DistributorAdded",
      "type": "event"
    },
    {
      "anonymous": false,
      "inputs": [
        {
          "indexed": true,
          "name": "account",
          "type": "address"
        }
      ],
      "name": "DistributorRemoved",
      "type": "event"
    },
    {
      "constant": true,
      "inputs": [
        {
          "name": "account",
          "type": "address"
        }
      ],
      "name": "isDistributor",
      "outputs": [
        {
          "name": "",
          "type": "bool"
        }
      ],
      "payable": false,
      "stateMutability": "view",
      "type": "function"
    },
    {
      "constant": false,
      "inputs": [
        {
          "name": "account",
          "type": "address"
        }
      ],
      "name": "addDistributor",
      "outputs": [],
      "payable": false,
      "stateMutability": "nonpayable",
      "type": "function"
    },
    {
      "constant": false,
      "inputs": [],
      "name": "renounceDistributor",
      "outputs": [],
      "payable": false,
      "stateMutability": "nonpayable",
      "type": "function"
    }
  ],
  "bytecode": "0x608060405234801561001057600080fd5b506100293361002e640100000000026401000000009004565b6101e8565b61004f816000610095640100000000026103b9179091906401000000009004565b8073ffffffffffffffffffffffffffffffffffffffff167fddbf200aa634dc3fb81cfd68583dd1040d1c751d335e1d86b631bde3e977fea860405160405180910390a250565b600073ffffffffffffffffffffffffffffffffffffffff168173ffffffffffffffffffffffffffffffffffffffff16141515156100d157600080fd5b6100ea8282610154640100000000026401000000009004565b1515156100f657600080fd5b60018260000160008373ffffffffffffffffffffffffffffffffffffffff1673ffffffffffffffffffffffffffffffffffffffff16815260200190815260200160002060006101000a81548160ff0219169083151502179055505050565b60008073ffffffffffffffffffffffffffffffffffffffff168273ffffffffffffffffffffffffffffffffffffffff161415151561019157600080fd5b8260000160008373ffffffffffffffffffffffffffffffffffffffff1673ffffffffffffffffffffffffffffffffffffffff16815260200190815260200160002060009054906101000a900460ff16905092915050565b610495806101f76000396000f300608060405260043610610057576000357c0100000000000000000000000000000000000000000000000000000000900463ffffffff168063644241db1461005c5780637250e224146100735780638f0c86fa146100b6575b600080fd5b34801561006857600080fd5b50610071610111565b005b34801561007f57600080fd5b506100b4600480360381019080803573ffffffffffffffffffffffffffffffffffffffff16906020019092919050505061011c565b005b3480156100c257600080fd5b506100f7600480360381019080803573ffffffffffffffffffffffffffffffffffffffff1690602001909291905050506101a5565b604051808215151515815260200191505060405180910390f35b61011a336101c2565b565b610125336101a5565b1515610199576040517f08c379a000000000000000000000000000000000000000000000000000000000815260040180806020018281038252601c8152602001807f43616c6c6572206973206e6f742061206469737472696275746f722e0000000081525060200191505060405180910390fd5b6101a28161021c565b50565b60006101bb82600061027690919063ffffffff16565b9050919050565b6101d681600061030a90919063ffffffff16565b8073ffffffffffffffffffffffffffffffffffffffff167f126174f6cf49c81cdb4a9214c6b8f037bef55b4ec31e4fc776cea2a1c8a88d5960405160405180910390a250565b6102308160006103b990919063ffffffff16565b8073ffffffffffffffffffffffffffffffffffffffff167fddbf200aa634dc3fb81cfd68583dd1040d1c751d335e1d86b631bde3e977fea860405160405180910390a250565b60008073ffffffffffffffffffffffffffffffffffffffff168273ffffffffffffffffffffffffffffffffffffffff16141515156102b357600080fd5b8260000160008373ffffffffffffffffffffffffffffffffffffffff1673ffffffffffffffffffffffffffffffffffffffff16815260200190815260200160002060009054906101000a900460ff16905092915050565b600073ffffffffffffffffffffffffffffffffffffffff168173ffffffffffffffffffffffffffffffffffffffff161415151561034657600080fd5b6103508282610276565b151561035b57600080fd5b60008260000160008373ffffffffffffffffffffffffffffffffffffffff1673ffffffffffffffffffffffffffffffffffffffff16815260200190815260200160002060006101000a81548160ff0219169083151502179055505050565b600073ffffffffffffffffffffffffffffffffffffffff168173ffffffffffffffffffffffffffffffffffffffff16141515156103f557600080fd5b6103ff8282610276565b15151561040b57600080fd5b60018260000160008373ffffffffffffffffffffffffffffffffffffffff1673ffffffffffffffffffffffffffffffffffffffff16815260200190815260200160002060006101000a81548160ff02191690831515021790555050505600a165627a7a723058205d2731cc300c104d66a1415c3136b0460fd5a16e1fd14cbff842472cb546454f0029",
  "source": "pragma solidity >=0.4.24;\n\n// Import the library 'Roles'\nimport \"./Roles.sol\";\n\n\n/**\n  * @dev  Define a contract 'DistributorRole' to manage this role - add, remove, check\n  */\ncontract DistributorRole {\n  using Roles for Roles.Role;\n\n  // Define 2 events, one for Adding, and other for Removing\n  event DistributorAdded(address indexed account);\n  event DistributorRemoved(address indexed account);\n\n  // Define a struct 'distributors' by inheriting from 'Roles' library, struct Role\n  Roles.Role private distributors;\n\n  // In the constructor make the address that deploys this contract the 1st distributor\n  constructor() public {\n    _addDistributor(msg.sender);\n  }\n\n  // Define a modifier that checks to see if msg.sender has the appropriate role\n  modifier onlyDistributor() {\n   require(isDistributor(msg.sender), \"Caller is not a distributor.\");\n    _;\n  }\n\n \n  /**\n  * @dev   function 'isDistributor' to check this role\n  * @param account of the distributor  to be check\n  */\n  function isDistributor(address account) public view returns (bool) {\n    return distributors.has(account);\n  }\n\n  \n  /**\n  * @dev   function 'addDistributor' that adds this role\n  * @param account of the distributor  to be add\n  */\n  function addDistributor(address account) public onlyDistributor {\n    _addDistributor(account);\n  }\n\n  \n   /**\n  * @dev   function 'renounceDistributor' to renounce this role\n  */\n  function renounceDistributor() public {\n    _removeDistributor(msg.sender);\n  }\n\n  \n  /**\n  * @dev   internal function '_addDistributor' to add this role, called by 'addDistributor'\n  * @param account of the distributor  to be add\n  */\n  function _addDistributor(address account) internal {\n    distributors.add(account);\n    emit DistributorAdded(account);\n  }\n\n  \n  /**\n  * @dev  internal function '_removeDistributor' to remove this role, called by 'removeDistributor'\n  * @param account of the distributor  to remove\n  */\n  function _removeDistributor(address account) internal {\n    distributors.remove(account);\n    emit DistributorRemoved(account);\n  }\n}\n",
  "sourcePath": "/home/gaethan/Bureau/UDACITY_Blockchain/SupplyChainProject/nd1309-Project-6b-Example-Template/project-6/contracts/sodaAccessControl/DistributorRole.sol",
  "compiler": {
    "name": "solc",
    "version": "0.4.24+commit.e67f0147.Emscripten.clang"
  },
  "schemaVersion": "3.3.2",
  "updatedAt": "2021-01-06T12:05:06.926Z",
  "networkType": "ethereum",
  "devdoc": {
    "methods": {
      "addDistributor(address)": {
        "details": "function 'addDistributor' that adds this role",
        "params": {
          "account": "of the distributor  to be add"
        }
      },
      "isDistributor(address)": {
        "details": "function 'isDistributor' to check this role",
        "params": {
          "account": "of the distributor  to be check"
        }
      },
      "renounceDistributor()": {
        "details": "function 'renounceDistributor' to renounce this role"
      }
    }
  },
  "userdoc": {
    "methods": {}
  }
}